{
  "transactions": [
    {
      "hash": "0xcd39fb8bf9cdf0840bae5481abe6d5f1b1508189af9c894ba7e89e80100bab4d",
      "transactionType": "CALL",
      "contractName": null,
      "contractAddress": "0x8b0a10f3ecc0a52c40ae2b5d3726a4a068fc6655",
      "function": "addLiquidity((address,address,uint24,bytes32,uint256,uint256,uint256,uint256,address,uint256))",
      "arguments": [
        "(0x94a9D9AC8a22534E3FaCa9F4e7F2E2cf85d5E4C8, 0xaA8E23Fb1079EA71e0a56F48a2aA51851D8433D0, 100, 0x00000000000000000000000000000000000000000000000000000000000a00de, 1000000000, 1000000000, 1, 1, 0x5b73C5498c1E3b4dbA84de0F1833c4a029d90519, 1727650140)"
      ],
      "transaction": {
        "from": "0xcac3f7c8c771476251e93b44cb7afa0c2edd5eb0",
        "to": "0x8b0a10f3ecc0a52c40ae2b5d3726a4a068fc6655",
        "gas": "0xeec6f",
        "value": "0x0",
        "input": "0xc869068e00000000000000000000000094a9d9ac8a22534e3faca9f4e7f2e2cf85d5e4c8000000000000000000000000aa8e23fb1079ea71e0a56f48a2aa51851d8433d0000000000000000000000000000000000000000000000000000000000000006400000000000000000000000000000000000000000000000000000000000a00de000000000000000000000000000000000000000000000000000000003b9aca00000000000000000000000000000000000000000000000000000000003b9aca00000000000000000000000000000000000000000000000000000000000000000100000000000000000000000000000000000000000000000000000000000000010000000000000000000000005b73c5498c1e3b4dba84de0f1833c4a029d905190000000000000000000000000000000000000000000000000000000066f9d95c",
        "nonce": "0x185",
        "chainId": "0xaa36a7",
        "accessList": null,
        "type": null
      },
      "additionalContracts": [],
      "isFixedGasLimit": false
    }
  ],
  "receipts": [
    {
      "status": "0x1",
      "cumulativeGasUsed": "0x1af133",
      "logs": [
        {
          "address": "0x94a9d9ac8a22534e3faca9f4e7f2e2cf85d5e4c8",
          "topics": [
            "0xddf252ad1be2c89b69c2b068fc378daa952ba7f163c4a11628f55a4df523b3ef",
            "0x000000000000000000000000cac3f7c8c771476251e93b44cb7afa0c2edd5eb0",
            "0x0000000000000000000000008b0a10f3ecc0a52c40ae2b5d3726a4a068fc6655"
          ],
          "data": "0x000000000000000000000000000000000000000000000000000000003b9aca00",
          "blockHash": "0xaeacccef15d007d4e6409fbf887fbf877dfad38b24d69fd2cb22ea557d0dce08",
          "blockNumber": "0x678483",
          "transactionHash": "0xcd39fb8bf9cdf0840bae5481abe6d5f1b1508189af9c894ba7e89e80100bab4d",
          "transactionIndex": "0x10",
          "logIndex": "0x14",
          "removed": false
        },
        {
          "address": "0x94a9d9ac8a22534e3faca9f4e7f2e2cf85d5e4c8",
          "topics": [
            "0x8c5be1e5ebec7d5bd14f71427d1e84f3dd0314c0f7b2291e5b200ac8c7c3b925",
            "0x000000000000000000000000cac3f7c8c771476251e93b44cb7afa0c2edd5eb0",
            "0x0000000000000000000000008b0a10f3ecc0a52c40ae2b5d3726a4a068fc6655"
          ],
          "data": "0xffffffffffffffffffffffffffffffffffffffffffffffffffffffff4d2fa1ff",
          "blockHash": "0xaeacccef15d007d4e6409fbf887fbf877dfad38b24d69fd2cb22ea557d0dce08",
          "blockNumber": "0x678483",
          "transactionHash": "0xcd39fb8bf9cdf0840bae5481abe6d5f1b1508189af9c894ba7e89e80100bab4d",
          "transactionIndex": "0x10",
          "logIndex": "0x15",
          "removed": false
        },
        {
          "address": "0xaa8e23fb1079ea71e0a56f48a2aa51851d8433d0",
          "topics": [
            "0xddf252ad1be2c89b69c2b068fc378daa952ba7f163c4a11628f55a4df523b3ef",
            "0x000000000000000000000000cac3f7c8c771476251e93b44cb7afa0c2edd5eb0",
            "0x0000000000000000000000008b0a10f3ecc0a52c40ae2b5d3726a4a068fc6655"
          ],
          "data": "0x000000000000000000000000000000000000000000000000000000003b9aca00",
          "blockHash": "0xaeacccef15d007d4e6409fbf887fbf877dfad38b24d69fd2cb22ea557d0dce08",
          "blockNumber": "0x678483",
          "transactionHash": "0xcd39fb8bf9cdf0840bae5481abe6d5f1b1508189af9c894ba7e89e80100bab4d",
          "transactionIndex": "0x10",
          "logIndex": "0x16",
          "removed": false
        },
        {
          "address": "0xaa8e23fb1079ea71e0a56f48a2aa51851d8433d0",
          "topics": [
            "0x8c5be1e5ebec7d5bd14f71427d1e84f3dd0314c0f7b2291e5b200ac8c7c3b925",
            "0x000000000000000000000000cac3f7c8c771476251e93b44cb7afa0c2edd5eb0",
            "0x0000000000000000000000008b0a10f3ecc0a52c40ae2b5d3726a4a068fc6655"
          ],
          "data": "0xffffffffffffffffffffffffffffffffffffffffffffffffffffffff4d2fa1ff",
          "blockHash": "0xaeacccef15d007d4e6409fbf887fbf877dfad38b24d69fd2cb22ea557d0dce08",
          "blockNumber": "0x678483",
          "transactionHash": "0xcd39fb8bf9cdf0840bae5481abe6d5f1b1508189af9c894ba7e89e80100bab4d",
          "transactionIndex": "0x10",
          "logIndex": "0x17",
          "removed": false
        },
        {
          "address": "0x94a9d9ac8a22534e3faca9f4e7f2e2cf85d5e4c8",
          "topics": [
            "0x8c5be1e5ebec7d5bd14f71427d1e84f3dd0314c0f7b2291e5b200ac8c7c3b925",
            "0x0000000000000000000000008b0a10f3ecc0a52c40ae2b5d3726a4a068fc6655",
            "0x00000000000000000000000031c2f6fcff4f8759b3bd5bf0e1084a055615c768"
          ],
          "data": "0x0000000000000000000000000000000000000000000000000000000011e1a300",
          "blockHash": "0xaeacccef15d007d4e6409fbf887fbf877dfad38b24d69fd2cb22ea557d0dce08",
          "blockNumber": "0x678483",
          "transactionHash": "0xcd39fb8bf9cdf0840bae5481abe6d5f1b1508189af9c894ba7e89e80100bab4d",
          "transactionIndex": "0x10",
          "logIndex": "0x18",
          "removed": false
        },
        {
          "address": "0xaa8e23fb1079ea71e0a56f48a2aa51851d8433d0",
          "topics": [
            "0x8c5be1e5ebec7d5bd14f71427d1e84f3dd0314c0f7b2291e5b200ac8c7c3b925",
            "0x0000000000000000000000008b0a10f3ecc0a52c40ae2b5d3726a4a068fc6655",
            "0x00000000000000000000000031c2f6fcff4f8759b3bd5bf0e1084a055615c768"
          ],
          "data": "0x0000000000000000000000000000000000000000000000000000000011e1a300",
          "blockHash": "0xaeacccef15d007d4e6409fbf887fbf877dfad38b24d69fd2cb22ea557d0dce08",
          "blockNumber": "0x678483",
          "transactionHash": "0xcd39fb8bf9cdf0840bae5481abe6d5f1b1508189af9c894ba7e89e80100bab4d",
          "transactionIndex": "0x10",
          "logIndex": "0x19",
          "removed": false
        },
        {
          "address": "0x31c2f6fcff4f8759b3bd5bf0e1084a055615c768",
          "topics": [
            "0xda9fa7c1b00402c17d0161b249b1ab8bbec047c5a52207b9c112deffd817036b",
            "0x0000000000000000000000008b0a10f3ecc0a52c40ae2b5d3726a4a068fc6655",
            "0x00000000000000000000000094a9d9ac8a22534e3faca9f4e7f2e2cf85d5e4c8",
            "0x000000000000000000000000969d90ac74a1a5228b66440f8c8326a8da47a5f9"
          ],
          "data": "0x000000000000000000000000ffffffffffffffffffffffffffffffffffffffff0000000000000000000000000000000000000000000000000000ffffffffffff",
          "blockHash": "0xaeacccef15d007d4e6409fbf887fbf877dfad38b24d69fd2cb22ea557d0dce08",
          "blockNumber": "0x678483",
          "transactionHash": "0xcd39fb8bf9cdf0840bae5481abe6d5f1b1508189af9c894ba7e89e80100bab4d",
          "transactionIndex": "0x10",
          "logIndex": "0x1a",
          "removed": false
        },
        {
          "address": "0x31c2f6fcff4f8759b3bd5bf0e1084a055615c768",
          "topics": [
            "0xda9fa7c1b00402c17d0161b249b1ab8bbec047c5a52207b9c112deffd817036b",
            "0x0000000000000000000000008b0a10f3ecc0a52c40ae2b5d3726a4a068fc6655",
            "0x000000000000000000000000aa8e23fb1079ea71e0a56f48a2aa51851d8433d0",
            "0x000000000000000000000000969d90ac74a1a5228b66440f8c8326a8da47a5f9"
          ],
          "data": "0x000000000000000000000000ffffffffffffffffffffffffffffffffffffffff0000000000000000000000000000000000000000000000000000ffffffffffff",
          "blockHash": "0xaeacccef15d007d4e6409fbf887fbf877dfad38b24d69fd2cb22ea557d0dce08",
          "blockNumber": "0x678483",
          "transactionHash": "0xcd39fb8bf9cdf0840bae5481abe6d5f1b1508189af9c894ba7e89e80100bab4d",
          "transactionIndex": "0x10",
          "logIndex": "0x1b",
          "removed": false
        },
        {
          "address": "0x31c2f6fcff4f8759b3bd5bf0e1084a055615c768",
          "topics": [
            "0xda9fa7c1b00402c17d0161b249b1ab8bbec047c5a52207b9c112deffd817036b",
            "0x0000000000000000000000008b0a10f3ecc0a52c40ae2b5d3726a4a068fc6655",
            "0x00000000000000000000000094a9d9ac8a22534e3faca9f4e7f2e2cf85d5e4c8",
            "0x000000000000000000000000f342ffb466018938c6251e2cc62cf6ad8d936cf8"
          ],
          "data": "0x000000000000000000000000ffffffffffffffffffffffffffffffffffffffff0000000000000000000000000000000000000000000000000000ffffffffffff",
          "blockHash": "0xaeacccef15d007d4e6409fbf887fbf877dfad38b24d69fd2cb22ea557d0dce08",
          "blockNumber": "0x678483",
          "transactionHash": "0xcd39fb8bf9cdf0840bae5481abe6d5f1b1508189af9c894ba7e89e80100bab4d",
          "transactionIndex": "0x10",
          "logIndex": "0x1c",
          "removed": false
        },
        {
          "address": "0x31c2f6fcff4f8759b3bd5bf0e1084a055615c768",
          "topics": [
            "0xda9fa7c1b00402c17d0161b249b1ab8bbec047c5a52207b9c112deffd817036b",
            "0x0000000000000000000000008b0a10f3ecc0a52c40ae2b5d3726a4a068fc6655",
            "0x000000000000000000000000aa8e23fb1079ea71e0a56f48a2aa51851d8433d0",
            "0x000000000000000000000000f342ffb466018938c6251e2cc62cf6ad8d936cf8"
          ],
          "data": "0x000000000000000000000000ffffffffffffffffffffffffffffffffffffffff0000000000000000000000000000000000000000000000000000ffffffffffff",
          "blockHash": "0xaeacccef15d007d4e6409fbf887fbf877dfad38b24d69fd2cb22ea557d0dce08",
          "blockNumber": "0x678483",
          "transactionHash": "0xcd39fb8bf9cdf0840bae5481abe6d5f1b1508189af9c894ba7e89e80100bab4d",
          "transactionIndex": "0x10",
          "logIndex": "0x1d",
          "removed": false
        },
        {
          "address": "0x969d90ac74a1a5228b66440f8c8326a8da47a5f9",
          "topics": [
            "0xddf252ad1be2c89b69c2b068fc378daa952ba7f163c4a11628f55a4df523b3ef",
            "0x0000000000000000000000000000000000000000000000000000000000000000",
            "0x0000000000000000000000008b0a10f3ecc0a52c40ae2b5d3726a4a068fc6655",
            "0x0000000000000000000000000000000000000000000000000000000000000003"
          ],
          "data": "0x",
          "blockHash": "0xaeacccef15d007d4e6409fbf887fbf877dfad38b24d69fd2cb22ea557d0dce08",
          "blockNumber": "0x678483",
          "transactionHash": "0xcd39fb8bf9cdf0840bae5481abe6d5f1b1508189af9c894ba7e89e80100bab4d",
          "transactionIndex": "0x10",
          "logIndex": "0x1e",
          "removed": false
        },
        {
          "address": "0x6f9302ee8760c764d775b1550c65468ec4c25dfc",
          "topics": [
            "0xf208f4912782fd25c7f114ca3723a2d5dd6f3bcc3ac8db5af63baa85f711d5ec",
            "0x0b795e55fb0ba4b55c91827a267f5f0f571f369073f2d697a87294de6bb26d1c",
            "0x000000000000000000000000969d90ac74a1a5228b66440f8c8326a8da47a5f9"
          ],
          "data": "0xfffffffffffffffffffffffffffffffffffffffffffffffffffffffffff2764c00000000000000000000000000000000000000000000000000000000000d89b40000000000000000000000000000000000000000000000000000000011e1a3000000000000000000000000000000000000000000000000000000000000000003",
          "blockHash": "0xaeacccef15d007d4e6409fbf887fbf877dfad38b24d69fd2cb22ea557d0dce08",
          "blockNumber": "0x678483",
          "transactionHash": "0xcd39fb8bf9cdf0840bae5481abe6d5f1b1508189af9c894ba7e89e80100bab4d",
          "transactionIndex": "0x10",
          "logIndex": "0x1f",
          "removed": false
        },
        {
          "address": "0x94a9d9ac8a22534e3faca9f4e7f2e2cf85d5e4c8",
          "topics": [
            "0x8c5be1e5ebec7d5bd14f71427d1e84f3dd0314c0f7b2291e5b200ac8c7c3b925",
            "0x0000000000000000000000008b0a10f3ecc0a52c40ae2b5d3726a4a068fc6655",
            "0x0000000000000000000000006ae43d3271ff6888e7fc43fd7321a503ff738951"
          ],
          "data": "0x0000000000000000000000000000000000000000000000000000000029b92700",
          "blockHash": "0xaeacccef15d007d4e6409fbf887fbf877dfad38b24d69fd2cb22ea557d0dce08",
          "blockNumber": "0x678483",
          "transactionHash": "0xcd39fb8bf9cdf0840bae5481abe6d5f1b1508189af9c894ba7e89e80100bab4d",
          "transactionIndex": "0x10",
          "logIndex": "0x20",
          "removed": false
        },
        {
          "address": "0xaa8e23fb1079ea71e0a56f48a2aa51851d8433d0",
          "topics": [
            "0x8c5be1e5ebec7d5bd14f71427d1e84f3dd0314c0f7b2291e5b200ac8c7c3b925",
            "0x0000000000000000000000008b0a10f3ecc0a52c40ae2b5d3726a4a068fc6655",
            "0x0000000000000000000000006ae43d3271ff6888e7fc43fd7321a503ff738951"
          ],
          "data": "0x0000000000000000000000000000000000000000000000000000000029b92700",
          "blockHash": "0xaeacccef15d007d4e6409fbf887fbf877dfad38b24d69fd2cb22ea557d0dce08",
          "blockNumber": "0x678483",
          "transactionHash": "0xcd39fb8bf9cdf0840bae5481abe6d5f1b1508189af9c894ba7e89e80100bab4d",
          "transactionIndex": "0x10",
          "logIndex": "0x21",
          "removed": false
        },
        {
          "address": "0x6ae43d3271ff6888e7fc43fd7321a503ff738951",
          "topics": [
            "0x804c9b842b2748a22bb64b345453a3de7ca54a6ca45ce00d415894979e22897a",
            "0x00000000000000000000000094a9d9ac8a22534e3faca9f4e7f2e2cf85d5e4c8"
          ],
          "data": "0x00000000000000000000000000000000000000000169deaae3967f3cb4dcdb56000000000000000000000000000000000000000001d841db66201da14b56e612000000000000000000000000000000000000000001cbd97bc5021bb4dc56e6120000000000000000000000000000000000000000038c7e94cab0a161785744cf000000000000000000000000000000000000000003a5807a606f8e0c6e1db7a7",
          "blockHash": "0xaeacccef15d007d4e6409fbf887fbf877dfad38b24d69fd2cb22ea557d0dce08",
          "blockNumber": "0x678483",
          "transactionHash": "0xcd39fb8bf9cdf0840bae5481abe6d5f1b1508189af9c894ba7e89e80100bab4d",
          "transactionIndex": "0x10",
          "logIndex": "0x22",
          "removed": false
        },
        {
          "address": "0x94a9d9ac8a22534e3faca9f4e7f2e2cf85d5e4c8",
          "topics": [
            "0xddf252ad1be2c89b69c2b068fc378daa952ba7f163c4a11628f55a4df523b3ef",
            "0x0000000000000000000000008b0a10f3ecc0a52c40ae2b5d3726a4a068fc6655",
            "0x00000000000000000000000016da4541ad1807f4443d92d26044c1147406eb80"
          ],
          "data": "0x0000000000000000000000000000000000000000000000000000000029b92700",
          "blockHash": "0xaeacccef15d007d4e6409fbf887fbf877dfad38b24d69fd2cb22ea557d0dce08",
          "blockNumber": "0x678483",
          "transactionHash": "0xcd39fb8bf9cdf0840bae5481abe6d5f1b1508189af9c894ba7e89e80100bab4d",
          "transactionIndex": "0x10",
          "logIndex": "0x23",
          "removed": false
        },
        {
          "address": "0x94a9d9ac8a22534e3faca9f4e7f2e2cf85d5e4c8",
          "topics": [
            "0x8c5be1e5ebec7d5bd14f71427d1e84f3dd0314c0f7b2291e5b200ac8c7c3b925",
            "0x0000000000000000000000008b0a10f3ecc0a52c40ae2b5d3726a4a068fc6655",
            "0x0000000000000000000000006ae43d3271ff6888e7fc43fd7321a503ff738951"
          ],
          "data": "0x0000000000000000000000000000000000000000000000000000000000000000",
          "blockHash": "0xaeacccef15d007d4e6409fbf887fbf877dfad38b24d69fd2cb22ea557d0dce08",
          "blockNumber": "0x678483",
          "transactionHash": "0xcd39fb8bf9cdf0840bae5481abe6d5f1b1508189af9c894ba7e89e80100bab4d",
          "transactionIndex": "0x10",
          "logIndex": "0x24",
          "removed": false
        },
        {
          "address": "0x16da4541ad1807f4443d92d26044c1147406eb80",
          "topics": [
            "0xddf252ad1be2c89b69c2b068fc378daa952ba7f163c4a11628f55a4df523b3ef",
            "0x0000000000000000000000000000000000000000000000000000000000000000",
            "0x0000000000000000000000008b0a10f3ecc0a52c40ae2b5d3726a4a068fc6655"
          ],
          "data": "0x0000000000000000000000000000000000000000000000000000000029c36e4a",
          "blockHash": "0xaeacccef15d007d4e6409fbf887fbf877dfad38b24d69fd2cb22ea557d0dce08",
          "blockNumber": "0x678483",
          "transactionHash": "0xcd39fb8bf9cdf0840bae5481abe6d5f1b1508189af9c894ba7e89e80100bab4d",
          "transactionIndex": "0x10",
          "logIndex": "0x25",
          "removed": false
        },
        {
          "address": "0x16da4541ad1807f4443d92d26044c1147406eb80",
          "topics": [
            "0x458f5fa412d0f69b08dd84872b0215675cc67bc1d5b6fd93300a1c3878b86196",
            "0x0000000000000000000000008b0a10f3ecc0a52c40ae2b5d3726a4a068fc6655",
            "0x0000000000000000000000008b0a10f3ecc0a52c40ae2b5d3726a4a068fc6655"
          ],
          "data": "0x0000000000000000000000000000000000000000000000000000000029c36e4a00000000000000000000000000000000000000000000000000000000000a474a0000000000000000000000000000000000000000038c7e94cab0a161785744cf",
          "blockHash": "0xaeacccef15d007d4e6409fbf887fbf877dfad38b24d69fd2cb22ea557d0dce08",
          "blockNumber": "0x678483",
          "transactionHash": "0xcd39fb8bf9cdf0840bae5481abe6d5f1b1508189af9c894ba7e89e80100bab4d",
          "transactionIndex": "0x10",
          "logIndex": "0x26",
          "removed": false
        },
        {
          "address": "0x6ae43d3271ff6888e7fc43fd7321a503ff738951",
          "topics": [
            "0x2b627736bca15cd5381dcf80b0bf11fd197d01a037c52b927a881a10fb73ba61",
            "0x00000000000000000000000094a9d9ac8a22534e3faca9f4e7f2e2cf85d5e4c8",
            "0x0000000000000000000000008b0a10f3ecc0a52c40ae2b5d3726a4a068fc6655",
            "0x0000000000000000000000000000000000000000000000000000000000000000"
          ],
          "data": "0x0000000000000000000000008b0a10f3ecc0a52c40ae2b5d3726a4a068fc66550000000000000000000000000000000000000000000000000000000029b92700",
          "blockHash": "0xaeacccef15d007d4e6409fbf887fbf877dfad38b24d69fd2cb22ea557d0dce08",
          "blockNumber": "0x678483",
          "transactionHash": "0xcd39fb8bf9cdf0840bae5481abe6d5f1b1508189af9c894ba7e89e80100bab4d",
          "transactionIndex": "0x10",
          "logIndex": "0x27",
          "removed": false
        },
        {
          "address": "0x6ae43d3271ff6888e7fc43fd7321a503ff738951",
          "topics": [
            "0x804c9b842b2748a22bb64b345453a3de7ca54a6ca45ce00d415894979e22897a",
            "0x000000000000000000000000aa8e23fb1079ea71e0a56f48a2aa51851d8433d0"
          ],
          "data": "0x000000000000000000000000000000000000000001d98e6862c15b52d69a87f20000000000000000000000000000000000000000021b0ee2b4635fc27d7e1c700000000000000000000000000000000000000000020ea68313455dd60e7e1c70000000000000000000000000000000000000000003e9709c471d73697035b45900000000000000000000000000000000000000000402da767bd2ad74a82b440d",
          "blockHash": "0xaeacccef15d007d4e6409fbf887fbf877dfad38b24d69fd2cb22ea557d0dce08",
          "blockNumber": "0x678483",
          "transactionHash": "0xcd39fb8bf9cdf0840bae5481abe6d5f1b1508189af9c894ba7e89e80100bab4d",
          "transactionIndex": "0x10",
          "logIndex": "0x28",
          "removed": false
        },
        {
          "address": "0xaa8e23fb1079ea71e0a56f48a2aa51851d8433d0",
          "topics": [
            "0xddf252ad1be2c89b69c2b068fc378daa952ba7f163c4a11628f55a4df523b3ef",
            "0x0000000000000000000000008b0a10f3ecc0a52c40ae2b5d3726a4a068fc6655",
            "0x000000000000000000000000af0f6e8b0dc5c913bbf4d14c22b4e78dd14310b6"
          ],
          "data": "0x0000000000000000000000000000000000000000000000000000000029b92700",
          "blockHash": "0xaeacccef15d007d4e6409fbf887fbf877dfad38b24d69fd2cb22ea557d0dce08",
          "blockNumber": "0x678483",
          "transactionHash": "0xcd39fb8bf9cdf0840bae5481abe6d5f1b1508189af9c894ba7e89e80100bab4d",
          "transactionIndex": "0x10",
          "logIndex": "0x29",
          "removed": false
        },
        {
          "address": "0xaa8e23fb1079ea71e0a56f48a2aa51851d8433d0",
          "topics": [
            "0x8c5be1e5ebec7d5bd14f71427d1e84f3dd0314c0f7b2291e5b200ac8c7c3b925",
            "0x0000000000000000000000008b0a10f3ecc0a52c40ae2b5d3726a4a068fc6655",
            "0x0000000000000000000000006ae43d3271ff6888e7fc43fd7321a503ff738951"
          ],
          "data": "0x0000000000000000000000000000000000000000000000000000000000000000",
          "blockHash": "0xaeacccef15d007d4e6409fbf887fbf877dfad38b24d69fd2cb22ea557d0dce08",
          "blockNumber": "0x678483",
          "transactionHash": "0xcd39fb8bf9cdf0840bae5481abe6d5f1b1508189af9c894ba7e89e80100bab4d",
          "transactionIndex": "0x10",
          "logIndex": "0x2a",
          "removed": false
        },
        {
          "address": "0xaf0f6e8b0dc5c913bbf4d14c22b4e78dd14310b6",
          "topics": [
            "0xddf252ad1be2c89b69c2b068fc378daa952ba7f163c4a11628f55a4df523b3ef",
            "0x0000000000000000000000000000000000000000000000000000000000000000",
            "0x0000000000000000000000008b0a10f3ecc0a52c40ae2b5d3726a4a068fc6655"
          ],
          "data": "0x0000000000000000000000000000000000000000000000000000000029c6801e",
          "blockHash": "0xaeacccef15d007d4e6409fbf887fbf877dfad38b24d69fd2cb22ea557d0dce08",
          "blockNumber": "0x678483",
          "transactionHash": "0xcd39fb8bf9cdf0840bae5481abe6d5f1b1508189af9c894ba7e89e80100bab4d",
          "transactionIndex": "0x10",
          "logIndex": "0x2b",
          "removed": false
        },
        {
          "address": "0xaf0f6e8b0dc5c913bbf4d14c22b4e78dd14310b6",
          "topics": [
            "0x458f5fa412d0f69b08dd84872b0215675cc67bc1d5b6fd93300a1c3878b86196",
            "0x0000000000000000000000008b0a10f3ecc0a52c40ae2b5d3726a4a068fc6655",
            "0x0000000000000000000000008b0a10f3ecc0a52c40ae2b5d3726a4a068fc6655"
          ],
          "data": "0x0000000000000000000000000000000000000000000000000000000029c6801e00000000000000000000000000000000000000000000000000000000000d591e000000000000000000000000000000000000000003e9709c471d73697035b459",
          "blockHash": "0xaeacccef15d007d4e6409fbf887fbf877dfad38b24d69fd2cb22ea557d0dce08",
          "blockNumber": "0x678483",
          "transactionHash": "0xcd39fb8bf9cdf0840bae5481abe6d5f1b1508189af9c894ba7e89e80100bab4d",
          "transactionIndex": "0x10",
          "logIndex": "0x2c",
          "removed": false
        },
        {
          "address": "0x6ae43d3271ff6888e7fc43fd7321a503ff738951",
          "topics": [
            "0x2b627736bca15cd5381dcf80b0bf11fd197d01a037c52b927a881a10fb73ba61",
            "0x000000000000000000000000aa8e23fb1079ea71e0a56f48a2aa51851d8433d0",
            "0x0000000000000000000000008b0a10f3ecc0a52c40ae2b5d3726a4a068fc6655",
            "0x0000000000000000000000000000000000000000000000000000000000000000"
          ],
          "data": "0x0000000000000000000000008b0a10f3ecc0a52c40ae2b5d3726a4a068fc66550000000000000000000000000000000000000000000000000000000029b92700",
          "blockHash": "0xaeacccef15d007d4e6409fbf887fbf877dfad38b24d69fd2cb22ea557d0dce08",
          "blockNumber": "0x678483",
          "transactionHash": "0xcd39fb8bf9cdf0840bae5481abe6d5f1b1508189af9c894ba7e89e80100bab4d",
          "transactionIndex": "0x10",
          "logIndex": "0x2d",
          "removed": false
        },
        {
          "address": "0x969d90ac74a1a5228b66440f8c8326a8da47a5f9",
          "topics": [
            "0x547f338f02d501a923ee4865857cad34ce600348ee714b1968240d63259bb02e",
            "0x0000000000000000000000000000000000000000000000000000000000000003"
          ],
          "data": "0x0000000000000000000000000000000000000000000000000000000011e1a3000000000000000000000000000000000000000000000000000000000000000000",
          "blockHash": "0xaeacccef15d007d4e6409fbf887fbf877dfad38b24d69fd2cb22ea557d0dce08",
          "blockNumber": "0x678483",
          "transactionHash": "0xcd39fb8bf9cdf0840bae5481abe6d5f1b1508189af9c894ba7e89e80100bab4d",
          "transactionIndex": "0x10",
          "logIndex": "0x2e",
          "removed": false
        },
        {
          "address": "0x969d90ac74a1a5228b66440f8c8326a8da47a5f9",
          "topics": [
            "0xfac327ebbe3e6d81300345c220b51b2b4b6fd6dc5572014d700f3df2f90f6b0e",
            "0x0000000000000000000000000000000000000000000000000000000000000003"
          ],
          "data": "0x00000000000000000000000094a9d9ac8a22534e3faca9f4e7f2e2cf85d5e4c8000000000000000000000000aa8e23fb1079ea71e0a56f48a2aa51851d8433d00000000000000000000000008b0a10f3ecc0a52c40ae2b5d3726a4a068fc66550000000000000000000000006f9302ee8760c764d775b1550c65468ec4c25dfc000000000000000000000000000000000000000000000000000000000000006400000000000000000000000000000000000000000000000000000000000a00defffffffffffffffffffffffffffffffffffffffffffffffffffffffffff2764c00000000000000000000000000000000000000000000000000000000000d89b4",
          "blockHash": "0xaeacccef15d007d4e6409fbf887fbf877dfad38b24d69fd2cb22ea557d0dce08",
          "blockNumber": "0x678483",
          "transactionHash": "0xcd39fb8bf9cdf0840bae5481abe6d5f1b1508189af9c894ba7e89e80100bab4d",
          "transactionIndex": "0x10",
          "logIndex": "0x2f",
          "removed": false
        },
        {
          "address": "0x94a9d9ac8a22534e3faca9f4e7f2e2cf85d5e4c8",
          "topics": [
            "0xddf252ad1be2c89b69c2b068fc378daa952ba7f163c4a11628f55a4df523b3ef",
            "0x0000000000000000000000008b0a10f3ecc0a52c40ae2b5d3726a4a068fc6655",
            "0x000000000000000000000000a9b361df352a80ba3213c656b4efa5436ec80362"
          ],
          "data": "0x0000000000000000000000000000000000000000000000000000000011e1a300",
          "blockHash": "0xaeacccef15d007d4e6409fbf887fbf877dfad38b24d69fd2cb22ea557d0dce08",
          "blockNumber": "0x678483",
          "transactionHash": "0xcd39fb8bf9cdf0840bae5481abe6d5f1b1508189af9c894ba7e89e80100bab4d",
          "transactionIndex": "0x10",
          "logIndex": "0x30",
          "removed": false
        },
        {
          "address": "0x94a9d9ac8a22534e3faca9f4e7f2e2cf85d5e4c8",
          "topics": [
            "0x8c5be1e5ebec7d5bd14f71427d1e84f3dd0314c0f7b2291e5b200ac8c7c3b925",
            "0x0000000000000000000000008b0a10f3ecc0a52c40ae2b5d3726a4a068fc6655",
            "0x00000000000000000000000031c2f6fcff4f8759b3bd5bf0e1084a055615c768"
          ],
          "data": "0x0000000000000000000000000000000000000000000000000000000000000000",
          "blockHash": "0xaeacccef15d007d4e6409fbf887fbf877dfad38b24d69fd2cb22ea557d0dce08",
          "blockNumber": "0x678483",
          "transactionHash": "0xcd39fb8bf9cdf0840bae5481abe6d5f1b1508189af9c894ba7e89e80100bab4d",
          "transactionIndex": "0x10",
          "logIndex": "0x31",
          "removed": false
        },
        {
          "address": "0xaa8e23fb1079ea71e0a56f48a2aa51851d8433d0",
          "topics": [
            "0xddf252ad1be2c89b69c2b068fc378daa952ba7f163c4a11628f55a4df523b3ef",
            "0x0000000000000000000000008b0a10f3ecc0a52c40ae2b5d3726a4a068fc6655",
            "0x000000000000000000000000a9b361df352a80ba3213c656b4efa5436ec80362"
          ],
          "data": "0x0000000000000000000000000000000000000000000000000000000011e1a300",
          "blockHash": "0xaeacccef15d007d4e6409fbf887fbf877dfad38b24d69fd2cb22ea557d0dce08",
          "blockNumber": "0x678483",
          "transactionHash": "0xcd39fb8bf9cdf0840bae5481abe6d5f1b1508189af9c894ba7e89e80100bab4d",
          "transactionIndex": "0x10",
          "logIndex": "0x32",
          "removed": false
        },
        {
          "address": "0xaa8e23fb1079ea71e0a56f48a2aa51851d8433d0",
          "topics": [
            "0x8c5be1e5ebec7d5bd14f71427d1e84f3dd0314c0f7b2291e5b200ac8c7c3b925",
            "0x0000000000000000000000008b0a10f3ecc0a52c40ae2b5d3726a4a068fc6655",
            "0x00000000000000000000000031c2f6fcff4f8759b3bd5bf0e1084a055615c768"
          ],
          "data": "0x0000000000000000000000000000000000000000000000000000000000000000",
          "blockHash": "0xaeacccef15d007d4e6409fbf887fbf877dfad38b24d69fd2cb22ea557d0dce08",
          "blockNumber": "0x678483",
          "transactionHash": "0xcd39fb8bf9cdf0840bae5481abe6d5f1b1508189af9c894ba7e89e80100bab4d",
          "transactionIndex": "0x10",
          "logIndex": "0x33",
          "removed": false
        },
        {
          "address": "0x87c55d423a56389f411f18e8cacff0e0be517508",
          "topics": [
            "0xddf252ad1be2c89b69c2b068fc378daa952ba7f163c4a11628f55a4df523b3ef",
            "0x0000000000000000000000000000000000000000000000000000000000000000",
            "0x000000000000000000000000cac3f7c8c771476251e93b44cb7afa0c2edd5eb0"
          ],
          "data": "0x0000000000000000000000000000000000000000000000000000000011e1a300",
          "blockHash": "0xaeacccef15d007d4e6409fbf887fbf877dfad38b24d69fd2cb22ea557d0dce08",
          "blockNumber": "0x678483",
          "transactionHash": "0xcd39fb8bf9cdf0840bae5481abe6d5f1b1508189af9c894ba7e89e80100bab4d",
          "transactionIndex": "0x10",
          "logIndex": "0x34",
          "removed": false
        },
        {
          "address": "0x8b0a10f3ecc0a52c40ae2b5d3726a4a068fc6655",
          "topics": [
            "0xac1d76749e5447b7b16f5ab61447e1bd502f3bb4807af3b28e620d1700a6ee45",
            "0x000000000000000000000000cac3f7c8c771476251e93b44cb7afa0c2edd5eb0"
          ],
          "data": "0x0000000000000000000000000000000000000000000000000000000011e1a3000000000000000000000000000000000000000000000000000000000066f9d8e4",
          "blockHash": "0xaeacccef15d007d4e6409fbf887fbf877dfad38b24d69fd2cb22ea557d0dce08",
          "blockNumber": "0x678483",
          "transactionHash": "0xcd39fb8bf9cdf0840bae5481abe6d5f1b1508189af9c894ba7e89e80100bab4d",
          "transactionIndex": "0x10",
          "logIndex": "0x35",
          "removed": false
        }
      ],
      "logsBloom": "0x0000000000000008c200000000000000000000000000400000000000000000000000208000001000000140000004202000040000022000000c000000003000000000008000000080000000080000000c00000000000000080000080400002000040000000a00081204008000800008000200000000008000000000100010000020200020030000000040400800000210002000000000000000004000040041004a0004000100000000004000000000000000008000c0000000000418000041000200800200000000000400204009000000200000100002014000000100802000001008000000000000000000002000004c010002000000000010402000000000",
      "type": "0x0",
      "transactionHash": "0xcd39fb8bf9cdf0840bae5481abe6d5f1b1508189af9c894ba7e89e80100bab4d",
      "transactionIndex": "0x10",
      "blockHash": "0xaeacccef15d007d4e6409fbf887fbf877dfad38b24d69fd2cb22ea557d0dce08",
      "blockNumber": "0x678483",
      "gasUsed": "0xacdee",
      "effectiveGasPrice": "0x182a3b9a96",
      "from": "0xcac3f7c8c771476251e93b44cb7afa0c2edd5eb0",
      "to": "0x8b0a10f3ecc0a52c40ae2b5d3726a4a068fc6655",
      "contractAddress": null
    }
  ],
  "libraries": [],
  "pending": [],
  "returns": {},
  "timestamp": 1727650026,
  "chain": 11155111,
  "commit": "bac4665"
}